{
  "_format": "hh-sol-artifact-1",
  "contractName": "Escrow",
  "sourceName": "contracts/Escrow.sol",
  "abi": [
    {
      "inputs": [],
      "stateMutability": "nonpayable",
      "type": "constructor"
    },
    {
      "anonymous": false,
      "inputs": [
        {
          "indexed": true,
          "internalType": "uint256",
          "name": "dealId",
          "type": "uint256"
        },
        {
          "indexed": false,
          "internalType": "address",
          "name": "buyer",
          "type": "address"
        },
        {
          "indexed": false,
          "internalType": "address",
          "name": "seller",
          "type": "address"
        },
        {
          "indexed": false,
          "internalType": "address",
          "name": "token",
          "type": "address"
        },
        {
          "indexed": false,
          "internalType": "uint256",
          "name": "amount",
          "type": "uint256"
        }
      ],
      "name": "DealCreated",
      "type": "event"
    },
    {
      "anonymous": false,
      "inputs": [
        {
          "indexed": true,
          "internalType": "uint256",
          "name": "dealId",
          "type": "uint256"
        }
      ],
      "name": "DealDisputed",
      "type": "event"
    },
    {
      "anonymous": false,
      "inputs": [
        {
          "indexed": true,
          "internalType": "uint256",
          "name": "dealId",
          "type": "uint256"
        }
      ],
      "name": "DealReleased",
      "type": "event"
    },
    {
      "anonymous": false,
      "inputs": [
        {
          "indexed": true,
          "internalType": "uint256",
          "name": "dealId",
          "type": "uint256"
        },
        {
          "indexed": false,
          "internalType": "bool",
          "name": "releasedToSeller",
          "type": "bool"
        }
      ],
      "name": "DealResolved",
      "type": "event"
    },
    {
      "inputs": [
        {
          "internalType": "uint256",
          "name": "dealId",
          "type": "uint256"
        }
      ],
      "name": "autoRelease",
      "outputs": [],
      "stateMutability": "nonpayable",
      "type": "function"
    },
    {
      "inputs": [
        {
          "internalType": "address",
          "name": "seller",
          "type": "address"
        },
        {
          "internalType": "address",
          "name": "token",
          "type": "address"
        },
        {
          "internalType": "uint256",
          "name": "amount",
          "type": "uint256"
        }
      ],
      "name": "createDeal",
      "outputs": [
        {
          "internalType": "uint256",
          "name": "",
          "type": "uint256"
        }
      ],
      "stateMutability": "nonpayable",
      "type": "function"
    },
    {
      "inputs": [
        {
          "internalType": "uint256",
          "name": "",
          "type": "uint256"
        }
      ],
      "name": "deals",
      "outputs": [
        {
          "internalType": "address",
          "name": "buyer",
          "type": "address"
        },
        {
          "internalType": "address",
          "name": "seller",
          "type": "address"
        },
        {
          "internalType": "address",
          "name": "token",
          "type": "address"
        },
        {
          "internalType": "uint256",
          "name": "amount",
          "type": "uint256"
        },
        {
          "internalType": "uint256",
          "name": "deadline",
          "type": "uint256"
        },
        {
          "internalType": "bool",
          "name": "released",
          "type": "bool"
        },
        {
          "internalType": "bool",
          "name": "disputed",
          "type": "bool"
        }
      ],
      "stateMutability": "view",
      "type": "function"
    },
    {
      "inputs": [
        {
          "internalType": "uint256",
          "name": "dealId",
          "type": "uint256"
        }
      ],
      "name": "disputeDeal",
      "outputs": [],
      "stateMutability": "nonpayable",
      "type": "function"
    },
    {
      "inputs": [],
      "name": "moderator",
      "outputs": [
        {
          "internalType": "address",
          "name": "",
          "type": "address"
        }
      ],
      "stateMutability": "view",
      "type": "function"
    },
    {
      "inputs": [],
      "name": "nextDealId",
      "outputs": [
        {
          "internalType": "uint256",
          "name": "",
          "type": "uint256"
        }
      ],
      "stateMutability": "view",
      "type": "function"
    },
    {
      "inputs": [
        {
          "internalType": "uint256",
          "name": "dealId",
          "type": "uint256"
        }
      ],
      "name": "releaseDeal",
      "outputs": [],
      "stateMutability": "nonpayable",
      "type": "function"
    },
    {
      "inputs": [
        {
          "internalType": "uint256",
          "name": "dealId",
          "type": "uint256"
        },
        {
          "internalType": "bool",
          "name": "releaseToSeller",
          "type": "bool"
        }
      ],
      "name": "resolveDispute",
      "outputs": [],
      "stateMutability": "nonpayable",
      "type": "function"
    }
  ],
  "bytecode": "0x608060405234801561001057600080fd5b50336000806101000a81548173ffffffffffffffffffffffffffffffffffffffff021916908373ffffffffffffffffffffffffffffffffffffffff1602179055506114f5806100606000396000f3fe608060405234801561001057600080fd5b50600436106100885760003560e01c80634d9879e31161005b5780634d9879e314610119578063505b653814610137578063a2cd415814610153578063fc8edb521461018357610088565b806303988f841461008d57806334b25ee2146100c357806338743904146100df578063459b860e146100fd575b600080fd5b6100a760048036038101906100a29190610de5565b61019f565b6040516100ba9796959493929190610e7d565b60405180910390f35b6100dd60048036038101906100d89190610f18565b61025b565b005b6100e76104c7565b6040516100f49190610f58565b60405180910390f35b61011760048036038101906101129190610de5565b6104eb565b005b6101216106ce565b60405161012e9190610f73565b60405180910390f35b610151600480360381019061014c9190610de5565b6106d4565b005b61016d60048036038101906101689190610fba565b610917565b60405161017a9190610f73565b60405180910390f35b61019d60048036038101906101989190610de5565b610c32565b005b60026020528060005260406000206000915090508060000160009054906101000a900473ffffffffffffffffffffffffffffffffffffffff16908060010160009054906101000a900473ffffffffffffffffffffffffffffffffffffffff16908060020160009054906101000a900473ffffffffffffffffffffffffffffffffffffffff16908060030154908060040154908060050160009054906101000a900460ff16908060050160019054906101000a900460ff16905087565b60008054906101000a900473ffffffffffffffffffffffffffffffffffffffff1673ffffffffffffffffffffffffffffffffffffffff163373ffffffffffffffffffffffffffffffffffffffff16146102e9576040517f08c379a00000000000000000000000000000000000000000000000000000000081526004016102e09061106a565b60405180910390fd5b60006002600084815260200190815260200160002090508060050160019054906101000a900460ff16801561032d57508060050160009054906101000a900460ff16155b61036c576040517f08c379a0000000000000000000000000000000000000000000000000000000008152600401610363906110d6565b60405180910390fd5b60018160050160006101000a81548160ff0219169083151502179055506000826103ba578160000160009054906101000a900473ffffffffffffffffffffffffffffffffffffffff166103e0565b8160010160009054906101000a900473ffffffffffffffffffffffffffffffffffffffff165b90508160020160009054906101000a900473ffffffffffffffffffffffffffffffffffffffff1673ffffffffffffffffffffffffffffffffffffffff1663a9059cbb8284600301546040518363ffffffff1660e01b81526004016104459291906110f6565b6020604051808303816000875af1158015610464573d6000803e3d6000fd5b505050506040513d601f19601f820116820180604052508101906104889190611134565b50837fe067825a5154a99145e378d7e12e29367746e004ca81b1e686f0dcb5b507fcac846040516104b99190611161565b60405180910390a250505050565b60008054906101000a900473ffffffffffffffffffffffffffffffffffffffff1681565b60006002600083815260200190815260200160002090508060050160009054906101000a900460ff1615801561053057508060050160019054906101000a900460ff16155b61056f576040517f08c379a0000000000000000000000000000000000000000000000000000000008152600401610566906111c8565b60405180910390fd5b806004015442116105b5576040517f08c379a00000000000000000000000000000000000000000000000000000000081526004016105ac90611234565b60405180910390fd5b60018160050160006101000a81548160ff0219169083151502179055508060020160009054906101000a900473ffffffffffffffffffffffffffffffffffffffff1673ffffffffffffffffffffffffffffffffffffffff1663a9059cbb8260010160009054906101000a900473ffffffffffffffffffffffffffffffffffffffff1683600301546040518363ffffffff1660e01b81526004016106599291906110f6565b6020604051808303816000875af1158015610678573d6000803e3d6000fd5b505050506040513d601f19601f8201168201806040525081019061069c9190611134565b50817fc7d2a23e46e4e0c7a16c99dbc8db2030ecdca97bf9295d770a84708863c6352c60405160405180910390a25050565b60015481565b806002600082815260200190815260200160002060000160009054906101000a900473ffffffffffffffffffffffffffffffffffffffff1673ffffffffffffffffffffffffffffffffffffffff163373ffffffffffffffffffffffffffffffffffffffff1614610779576040517f08c379a0000000000000000000000000000000000000000000000000000000008152600401610770906112a0565b60405180910390fd5b60006002600084815260200190815260200160002090508060050160009054906101000a900460ff161580156107be57508060050160019054906101000a900460ff16155b6107fd576040517f08c379a00000000000000000000000000000000000000000000000000000000081526004016107f49061130c565b60405180910390fd5b60018160050160006101000a81548160ff0219169083151502179055508060020160009054906101000a900473ffffffffffffffffffffffffffffffffffffffff1673ffffffffffffffffffffffffffffffffffffffff1663a9059cbb8260010160009054906101000a900473ffffffffffffffffffffffffffffffffffffffff1683600301546040518363ffffffff1660e01b81526004016108a19291906110f6565b6020604051808303816000875af11580156108c0573d6000803e3d6000fd5b505050506040513d601f19601f820116820180604052508101906108e49190611134565b50827fc7d2a23e46e4e0c7a16c99dbc8db2030ecdca97bf9295d770a84708863c6352c60405160405180910390a2505050565b60008073ffffffffffffffffffffffffffffffffffffffff168473ffffffffffffffffffffffffffffffffffffffff1603610987576040517f08c379a000000000000000000000000000000000000000000000000000000000815260040161097e90611378565b60405180910390fd5b8273ffffffffffffffffffffffffffffffffffffffff166323b872dd3330856040518463ffffffff1660e01b81526004016109c493929190611398565b6020604051808303816000875af11580156109e3573d6000803e3d6000fd5b505050506040513d601f19601f82011682018060405250810190610a079190611134565b506040518060e001604052803373ffffffffffffffffffffffffffffffffffffffff1681526020018573ffffffffffffffffffffffffffffffffffffffff1681526020018473ffffffffffffffffffffffffffffffffffffffff1681526020018381526020016202a30042610a7c91906113fe565b81526020016000151581526020016000151581525060026000600154815260200190815260200160002060008201518160000160006101000a81548173ffffffffffffffffffffffffffffffffffffffff021916908373ffffffffffffffffffffffffffffffffffffffff16021790555060208201518160010160006101000a81548173ffffffffffffffffffffffffffffffffffffffff021916908373ffffffffffffffffffffffffffffffffffffffff16021790555060408201518160020160006101000a81548173ffffffffffffffffffffffffffffffffffffffff021916908373ffffffffffffffffffffffffffffffffffffffff160217905550606082015181600301556080820151816004015560a08201518160050160006101000a81548160ff02191690831515021790555060c08201518160050160016101000a81548160ff0219169083151502179055509050506001547fc0dc858eb5e76db42fc22f698ea72b0028bc33dee3d481e9be61f0103b51bbd433868686604051610c0a9493929190611432565b60405180910390a260016000815480929190610c2590611477565b9190505590509392505050565b806002600082815260200190815260200160002060000160009054906101000a900473ffffffffffffffffffffffffffffffffffffffff1673ffffffffffffffffffffffffffffffffffffffff163373ffffffffffffffffffffffffffffffffffffffff1614610cd7576040517f08c379a0000000000000000000000000000000000000000000000000000000008152600401610cce906112a0565b60405180910390fd5b60006002600084815260200190815260200160002090508060050160009054906101000a900460ff16158015610d1c57508060050160019054906101000a900460ff16155b610d5b576040517f08c379a0000000000000000000000000000000000000000000000000000000008152600401610d52906111c8565b60405180910390fd5b60018160050160016101000a81548160ff021916908315150217905550827f185c2a554eff32f49a7ef7387f4bef0dae9c130c84d0e28717ec3076a8dccf0660405160405180910390a2505050565b600080fd5b6000819050919050565b610dc281610daf565b8114610dcd57600080fd5b50565b600081359050610ddf81610db9565b92915050565b600060208284031215610dfb57610dfa610daa565b5b6000610e0984828501610dd0565b91505092915050565b600073ffffffffffffffffffffffffffffffffffffffff82169050919050565b6000610e3d82610e12565b9050919050565b610e4d81610e32565b82525050565b610e5c81610daf565b82525050565b60008115159050919050565b610e7781610e62565b82525050565b600060e082019050610e92600083018a610e44565b610e9f6020830189610e44565b610eac6040830188610e44565b610eb96060830187610e53565b610ec66080830186610e53565b610ed360a0830185610e6e565b610ee060c0830184610e6e565b98975050505050505050565b610ef581610e62565b8114610f0057600080fd5b50565b600081359050610f1281610eec565b92915050565b60008060408385031215610f2f57610f2e610daa565b5b6000610f3d85828601610dd0565b9250506020610f4e85828601610f03565b9150509250929050565b6000602082019050610f6d6000830184610e44565b92915050565b6000602082019050610f886000830184610e53565b92915050565b610f9781610e32565b8114610fa257600080fd5b50565b600081359050610fb481610f8e565b92915050565b600080600060608486031215610fd357610fd2610daa565b5b6000610fe186828701610fa5565b9350506020610ff286828701610fa5565b925050604061100386828701610dd0565b9150509250925092565b600082825260208201905092915050565b7f4e6f74206d6f64657261746f7200000000000000000000000000000000000000600082015250565b6000611054600d8361100d565b915061105f8261101e565b602082019050919050565b6000602082019050818103600083015261108381611047565b9050919050565b7f496e76616c696420737461746500000000000000000000000000000000000000600082015250565b60006110c0600d8361100d565b91506110cb8261108a565b602082019050919050565b600060208201905081810360008301526110ef816110b3565b9050919050565b600060408201905061110b6000830185610e44565b6111186020830184610e53565b9392505050565b60008151905061112e81610eec565b92915050565b60006020828403121561114a57611149610daa565b5b60006111588482850161111f565b91505092915050565b60006020820190506111766000830184610e6e565b92915050565b7f416c7265616479207265736f6c76656400000000000000000000000000000000600082015250565b60006111b260108361100d565b91506111bd8261117c565b602082019050919050565b600060208201905081810360008301526111e1816111a5565b9050919050565b7f4e6f742079657420647565000000000000000000000000000000000000000000600082015250565b600061121e600b8361100d565b9150611229826111e8565b602082019050919050565b6000602082019050818103600083015261124d81611211565b9050919050565b7f4e6f742062757965720000000000000000000000000000000000000000000000600082015250565b600061128a60098361100d565b915061129582611254565b602082019050919050565b600060208201905081810360008301526112b98161127d565b9050919050565b7f43616e6e6f742072656c65617365000000000000000000000000000000000000600082015250565b60006112f6600e8361100d565b9150611301826112c0565b602082019050919050565b60006020820190508181036000830152611325816112e9565b9050919050565b7f496e76616c69642073656c6c6572000000000000000000000000000000000000600082015250565b6000611362600e8361100d565b915061136d8261132c565b602082019050919050565b6000602082019050818103600083015261139181611355565b9050919050565b60006060820190506113ad6000830186610e44565b6113ba6020830185610e44565b6113c76040830184610e53565b949350505050565b7f4e487b7100000000000000000000000000000000000000000000000000000000600052601160045260246000fd5b600061140982610daf565b915061141483610daf565b925082820190508082111561142c5761142b6113cf565b5b92915050565b60006080820190506114476000830187610e44565b6114546020830186610e44565b6114616040830185610e44565b61146e6060830184610e53565b95945050505050565b600061148282610daf565b91507fffffffffffffffffffffffffffffffffffffffffffffffffffffffffffffffff82036114b4576114b36113cf565b5b60018201905091905056fea264697066735822122033bdde0a348b9a0630cd732f63ae62daae3f9f1af3a43cf334cdcf2def4bb44364736f6c63430008140033",
  "linkReferences": {},
  "deployedLinkReferences": {}
}